:020000040800F2
:10000000009F0020E50E00089D0200089F020008E6
:10001000A3020008A7020008AB02000800000000CD
:10002000000000000000000000000000AF02000817
:10003000B102000800000000B3020008B502000889
:10004000FF0E0008FF0E0008FF0E0008FF0E00085C
:10005000FF0E0008FF0E0008FF0E0008FF0E00084C
:10006000FF0E0008FF0E0008FF0E0008FF0E00083C
:10007000FF0E0008FF0E0008FF0E0008FF0E00082C
:10008000FF0E0008FF0E0008FF0E0008FF0E00081C
:10009000FF0E0008FF0E0008FF0E0008FF0E00080C
:1000A000FF0E0008FF0E0008FF0E0008FF0E0008FC
:1000B000FF0E0008FF0E0008FF0E0008FF0E0008EC
:1000C000FF0E0008FF0E0008FF0E0008FF0E0008DC
:1000D000FF0E00082D0C0008FF0E0008FF0E0008A0
:1000E000FF0E0008FF0E0008FF0E0008FF0E0008BC
:1000F000FF0E0008FF0E0008FF0E0008FF0E0008AC
:10010000FF0E0008FF0E0008FF0E0008FF0E00089B
:10011000FF0E0008FF0E0008FF0E0008FF0E00088B
:10012000FF0E0008FF0E0008FF0E0008FF0E00087B
:10013000DFF80CD006F0A6FB004800474501000898
:10014000009F002008B54FF0FF3400F0ABFC4FF4E7
:10015000A06005F073FB4FF4E13000F01BFD00F0F0
:100160009BF900F0BFF900F0CDFA15E02FA006F0E2
:10017000ABFB4FF4FA7000F0D2FC32A006F0A4FB07
:100180004FF4FA7000F0CBFC3448006808B9012045
:1001900000E000203149086000F094FA4EF6177133
:1001A0008842E3D12EA006F08FFB3249324805F099
:1001B00093F804463CB12F492F4805F019F82D4912
:1001C0002D4805F089F830E02448006808B901207E
:1001D00000E00020214908600020009040F2031355
:1001E00026A22949244804F0C7FB04236A4626496D
:1001F000214803F027FB0098401C009022491E482C
:1002000004F073FC04236A461F491B4803F0FFF9FE
:100210001D49194804F03CFA1CA0009906F054FB53
:1002200044F6206000F07BFC00BFCDE7573235512B
:1002300031323820436865636B204661696C6564C0
:10024000210D0A00506C6561736520436865636B1E
:100250002120202020202020200D0A0094812142EE
:1002600057323551313238205265616479210D0A97
:10027000000000009C6D000854000020626F6F7445
:100280005F636F756E740000CC000020626F6F7446
:100290005F636F756E743A2025640A00704700BF73
:1002A000FEE700BFFEE700BFFEE700BFFEE77047C6
:1002B00070477047704700000CB500200190009017
:1002C0006C48006840F480306A49086000BF6948A3
:1002D000006800F4003000900198401C01900098E4
:1002E00018B90198B0F5A06FF1D16248006800F428
:1002F000003010B10120009001E000200090009833
:10030000012843D15C48006840F010005A49086059
:100310000846006820F0030008600846006840F0C6
:1003200002000860534840685249486008464068E7
:1003300048600846406840F480604860084640686D
:1003400020F47C1048600846406840F4E81048609B
:100350000846006840F08070086000BF45480068AB
:1003600000F000700028F9D04248406820F00300F7
:10037000404948600846406840F00200486000BFBD
:100380003C48406800F00C000828F9D10CBD10B5BD
:10039000FFF792FF10BD10B53648006840F001002D
:1003A000344908600846406834490840314948608B
:1003B00008460068324908402E490860084600682F
:1003C00020F4802008600846406820F4FE00486061
:1003D0004FF41F008860FFF7DAFF4FF000602949F3
:1003E000086010BD10B5002100200022214B5B6881
:1003F00003F00C0121B1042906D0082928D107E017
:10040000214B224C236027E01F4B204C236023E02C
:10041000184B5B6803F47010164B5B6803F4803272
:10042000022303EB904022B9194B4343174C23603E
:100430000DE0104B5B6803F4003323B1144B4343CE
:10044000124C236003E0104B4343104C236003E045
:100450000D4B0E4C236000BF00BF064B5B68C3F31F
:1004600003130C4CE15C094B1B68CB40074C236029
:1004700010BD000000100240002002400000FFF804
:10048000FFFFF6FE08ED00E000127A0000000020F9
:1004900000093D000400002008B50121482005F0B6
:1004A00057FD2020ADF8000010208DF80300032038
:1004B0008DF802006946094805F08EFA20210748A8
:1004C00005F037FB2020ADF800006946044805F030
:1004D00083FA2021024805F02CFB08BD000C0140E6
:1004E0000018014008B50121442005F031FD182015
:1004F000ADF8000048208DF8030069462C4805F04F
:100500006BFA0120ADF8000028208DF80300694641
:10051000284805F061FA08BD10B5044614B1012061
:10052000254908702448007858B31021204805F068
:10053000E6FA50B108211E4805F0E1FA28B1012180
:100540001C4805F0DCFA01281BD10A2000F0E7FA6C
:100550000020194908701021154805F0D0FA08B993
:10056000012010BD0821124805F0C9FA08B902207F
:10057000F7E701210F4805F0C2FA012815D1032041
:10058000EFE710210A4805F0BAFA01280DD1082139
:10059000074805F0B4FA012807D10121054805F004
:1005A000AEFA10B90120044908700020D9E7000014
:1005B00000180140000801401400002070B50546F5
:1005C000002405E0601CC4B2C82C01DD002070BD11
:1005D00002213A4806F073F80028F3D0294637483C
:1005E00006F01AF8002405E0601CC4B2C82C01DD36
:1005F0000020ECE70121314806F061F80028F3D033
:100600002E4806F00BF8C0B2E1E700B587B0012133
:10061000082005F09DFC0121880305F0A6FC4FF49D
:100620006040ADF8180018208DF81B0003208DF8ED
:100630001A0006A9224805F0CFF94FF4604120487E
:1006400005F077FA0020ADF804004FF48270ADF8A1
:1006500006000020ADF808000220ADF80A000120D5
:10066000ADF80C004002ADF80E003820ADF81000D7
:100670000020ADF812000720ADF8140001A90F48C2
:1006800005F0F4FE01210D4805F095FFFF20FFF76E
:1006900095FF07B000BD10B50446084800884FF626
:1006A000C771084005490880084600882043088033
:1006B0000121024805F07FFF10BD00000038004016
:1006C000000C014010B500240020EF490860902084
:1006D000FFF774FF0020FFF771FF0020FFF76EFFA8
:1006E0000020FFF76BFFFF20FFF768FF44EA0024BC
:1006F000FF20FFF763FF04430120E449C1F8B00184
:10070000204610BD08B50121082005F021FC4FF45A
:100710008050ADF8000010208DF8030003208DF804
:1007200002006946DA4805F057F94FF48051D8487D
:1007300005F0FFF90120D4490860FFF766FF0020AB
:10074000FFF7A9FFFFF7BEFFD249088008BD10B52B
:1007500000240020CC4908600520FFF72FFFFF2070
:10076000FFF72CFF04460120C849C1F8B00120461C
:1007700010BD10B504460020C34908600120FFF7F2
:100780001DFF2046FFF71AFF0120C049C1F8B00144
:1007900010BD10B50020BC4908600620FFF70EFF11
:1007A0000120BA49C1F8B00110BD10B50020B6490A
:1007B00008600420FFF702FF0120B449C1F8B0012E
:1007C00010BD2DE9F04106460C4617460020AE4903
:1007D00008600320FFF7F2FEC4F30740FFF7EEFEC8
:1007E000C4F30720FFF7EAFEE0B2FFF7E7FE0025BB
:1007F00005E0FF20FFF7E2FE7055681C85B2BD42A0
:10080000F7DB0120A0490860BDE8F08110B500BF0A
:10081000FFF79DFF00F001000028F9D110BD2DE980
:10082000F04106460C461746FFF7B3FF00209649F5
:1008300008600220FFF7C2FEC4F30740FFF7BEFEC8
:10084000C4F30720FFF7BAFEE0B2FFF7B7FE0025BA
:1008500004E0705DFFF7B2FE681C85B2BD42F8DBB4
:10086000012089490860FFF7D1FFBDE8F0812DE93B
:10087000F04107460E461446F0B2C0F58075AC4212
:1008800000DC254612E02A4631463846FFF7C7FF0E
:10089000AC4200D10BE02F442E44601B84B2B4F56F
:1008A000807F02DD4FF4807500E02546EBE700BF56
:1008B000BDE8F08110B50446214677A006F004F8A3
:1008C0002403FFF766FFFFF7A1FF00206E490860D1
:1008D0002020FFF773FEC4F30740FFF76FFEC4F359
:1008E0000720FFF76BFEE0B2FFF768FE01206749C3
:1008F000C1F8B001FFF78AFF10BD2DE9F05F814616
:100900000F461646DFF898B14FEA1738C7F30B0ABF
:10091000CAF58054A64200DC344644E04FEA083170
:100920004FF480525846FFF74CFF002508E00AEBD1
:1009300005001BF80000FF2800D003E0681C85B20A
:10094000A542F4DB00BFA54216DA4046FFF7B2FF2E
:10095000002507E019F8050005EB0A010BF8010076
:10096000681C85B2A542F5DB4FEA08314FF480528E
:100970005846FFF77CFF04E0224639464846FFF719
:1009800076FFA64200D10FE008F101084FF0000AFF
:10099000A1442744301B86B2B6F5805F02DD4FF4D8
:1009A000805400E03446B9E700BFBDE8F09F10B5C1
:1009B000FFF7EFFEFFF72AFF002033490860C7204A
:1009C000FFF7FCFD01203149C1F8B001FFF71EFF20
:1009D00010BD10B500202C490860B920FFF7EEFDCE
:1009E00001202A49C1F8B001032000F074F810BDBD
:1009F00010B5002024490860AB20FFF7DFFD01207F
:100A00002249C1F8B001032000F065F810BD2DE9BE
:100A1000F04180460C4615461E46069FB4F5805FA1
:100A200003D36FF00400BDE8F081BAB205EB0431E6
:100A30003046FFF7C6FE0020F5E72DE9F04180467D
:100A40000C4615461E46069FB4F5805F03D36FF033
:100A50000400BDE8F081BAB205EB04313046FFF77F
:100A600006FF0020F5E770B505460C46B4F5805F3B
:100A700002D36FF0040070BD2046FFF71BFF00207B
:100A8000F9E7014600207047B081214200802142F1
:100A9000000C01401600002066653A25780D0A001A
:100AA0002002002010B56FF0040004F016FF2E485D
:100AB00000682E49B0FBF1F02D4908700846007817
:100AC00000EB4001C1EBC0104FF6FF7101EAC0001E
:100AD0002849088010BD0146254A12784A434FF044
:100AE000E0235A6100229A611A46126942F001021B
:100AF0001A6100BF4FF0E022106900F001021AB144
:100B000000F48032002AF5D04FF0E022126922F082
:100B100001024FF0E0231A6100229A6170470146FA
:100B2000144A12884A434FF0E0235A6100229A6126
:100B30001A46126942F001021A6100BF4FF0E0222A
:100B4000106900F001021AB100F48032002AF5D0D9
:100B50004FF0E022126922F001024FF0E0231A6107
:100B600000229A61704700000000002000127A0005
:100B7000180000201A00002000BF704700BF4A4A3A
:100B8000128802F04002002AF9D0C2B2464B1B1D67
:100B90001A80704710B586B00446012144F2040063
:100BA00005F0D6F94FF40070ADF8140003208DF86D
:100BB000160018208DF8170005A93C4804F00CFF1A
:100BC0004FF48060ADF8140004208DF8170005A9DB
:100BD000364804F001FF25208DF8000003208DF831
:100BE00001008DF8020001208DF80300684604F032
:100BF0002AFE01940020ADF80800ADF80A00ADF817
:100C00000C00ADF810000C20ADF80E0001A926482C
:100C100005F045FA012240F22551234805F0D7FAA4
:100C20000121214805F0C7FA06B010BD10B540F209
:100C300025511D4805F0B0FB10B31B4805F02CFBF7
:100C4000C4B21B48008800F40040C8B918480088A6
:100C500000F4804060B10A2C03D0002014490880C1
:100C600020E01348008840F400401149088019E052
:100C70000D2C06D10E48008840F480400C490880B5
:100C800010E00B480088C0F30D000A490C540848D6
:100C90000088401C0649088008460088C72801DDF6
:100CA0000020088010BD000000380140000801400D
:100CB000200000202012002070B503460C4603E0FF
:100CC00014F8015B03F8015B151EA2F10102F7D1D4
:100CD00070BD30B5034601E003F8011B141EA2F1FC
:100CE0000102F9D130BD10B504467A4951F82410FB
:100CF0004A00794951F824000021FFF7EAFF7749BB
:100D000051F824207449083951F824000021FFF7D4
:100D1000E0FF012170480830015510BD10B50146B3
:100D20000023002207E06C4850F8210030F8120040
:100D300000B15B1C521C674850F821009042F2D869
:100D400064205843634C54F82140B0FBF4F0C0B227
:100D500010BD2DE9F04704460F460025A9465E4820
:100D60000830005D20B95C4810380168204688478B
:100D70001FB94FF0FF30BDE8F087594850F8240004
:100D8000B7FBF0F6564850F82400B7FBF0F100FB33
:100D9000117000B1761C4F4850F82400451E20E029
:100DA0004D4850F8240030F8150010B909F1010938
:100DB00001E04FF00009B14512D14FF0000808E002
:100DC000454850F8240005EB080220F8126008F1AD
:100DD0000108B045F4D3424850F824006843CAE7FC
:100DE0006D1E002DDCDA4FF0FF30C4E72DE9F04135
:100DF00004460E4638480830005D38B93648103889
:100E00000168204688470120BDE8F081334850F84A
:100E10002400B04217D9324850F82400B6FBF0F154
:100E20002D4850F8240030F81120002507E0002359
:100E3000294850F824004F1920F817306D1C9542AE
:100E4000F5DB0020E0E70220DEE770B505460C4642
:100E500004B970BD2048083850F82500261A3146DC
:100E60002846FFF7C3FF00BFF3E770B504460E4600
:100E700031462046FFF76DFF0546681C08B9002083
:100E800070BD1548083850F824002844F8E72DE9CB
:100E9000F04104460F46164631462046FFF759FFFB
:100EA0000546681C10B90020BDE8F0810A490839E0
:100EB00051F82410481932463946FFF7FDFE3946ED
:100EC0002046FFF7C2FF0448083850F824002844A1
:100ED000EAE70000E46D000834000020F46D00082B
:100EE000EC6D00080648804706480047FEE7FEE72D
:100EF000FEE7FEE7FEE7FEE7FEE7FEE7FEE7FEE7CA
:100F0000970300083101000870B505460C46AA6E2B
:100F1000916AFF22E06805F01BFC4FF0FF30206073
:100F200070BD2DE9FF4F83B0064688461446DDE9C3
:100F300010A5DDF84C90DDF848B0B06E006A504561
:100F400005D905EB0900B16EC969884204D96FF073
:100F5000530007B0BDE8F08FA6E04F46B8F1000F90
:100F60002AD0D8F80000504526D1D8E9010108441C
:100F7000A84221D9D8F80400A84216D8D8E90120FF
:100F8000AA1A811A384604F0B2FA0746D8F80420A3
:100F9000AA1AD8F80C0081183A46584605F0C6FB44
:100FA000BB443D44A9EB07097EE0D8F80400411B8F
:100FB000384604F09CFA07462068504522D1D4E90F
:100FC00001010844A8421DD96068A84214D8D4E998
:100FD0000120AA1A811A384604F089FA0746626885
:100FE000AA1AE06881183A46584605F09FFBBB44B0
:100FF0003D44A9EB070957E06068411B384604F0FF
:1010000076FA07460698814522D3B06E4069B5FB53
:10101000F0F100FB1150D8B9B06E4069484517D8BF
:10102000B06E4169384604F069FA07460097B06E21
:101030005B462A465146D0F804C0E047019001982B
:1010400008B1019885E7BB443D44A9EB07092BE0B3
:10105000C4F800A0B06E4169284604F04FFA606001
:10106000B26E5169069AA81804F04FFA0090B06E5B
:10107000C169009804F03BFA6168401A0190B06EB3
:10108000816A019804F033FAA060A0680090E368D8
:10109000D4E90012B06ED0F804C0E0470290029884
:1010A00008B1029855E700BFB9F1000F7FF455AFC2
:1010B00000204EE72DE9FF4F85B080461D46DDF844
:1010C00054B0DDE9129A149E002422E0012104AA02
:1010D0000AEB04002B1BCDE90090CDE9022140462C
:1010E000DDE90612FFF71DFF07461FB1384609B0BC
:1010F000BDE8F08F305D9DF81010884208D0305D5B
:101100009DF81010884201DD0120F0E70220EEE793
:10111000641C5C45DAD30020E9E72DE9FF4705466A
:101120000C46174698462068401C00283FD020688F
:10113000801C00283BD0AA6E9169A06804F0E5F9F4
:1011400006460096E368D4E90012A86ED0F808C0FD
:10115000E0478146B9F1000F03D0484604B0BDE82E
:10116000F087B8F1000F1DD03946284604F0B0FAD8
:10117000D4E90012E0683346CDE90206CDE9001259
:101180003A4600212846FFF795FF8246BAF1000F44
:1011900001DA5046E2E7BAF1000F02D06FF05300D7
:1011A000DCE700BF21462846FFF7AEFE00BF002067
:1011B000D4E72DE9F04104460F46154698462946E6
:1011C000204604F085FA43462A4639462046FFF772
:1011D000A4FF064616B13046BDE8F081A06E016955
:1011E000884706463046F7E72DE9FF5F06460C467E
:1011F000DDE90E95DDF84480DDF840A046E020688A
:10120000484538D16068A84235D86068B16E896AAF
:101210000844A8422FD9B06E806A6268AA1A811A5F
:10122000404604F064F907466268AA1AE168881823
:101230003A46514605F07AFABA443D44A8EB07080D
:101240006268A91AA06804F04BF9A060A068B16EAA
:10125000896A88420ED121463046DDE90223FFF734
:101260005CFF8346BBF1000F03D0584604B0BDE8D5
:10127000F09F00BF0AE0C4F80090B06E8169284674
:1012800004F03CF960600020A06000BFB8F1000FDE
:10129000B5D10020EAE770B504460D46A06E294698
:1012A000C26890470646304670BD024610680B681B
:1012B00098420DD050684B68984209D010684B682E
:1012C000984205D050680B68984201D001207047C1
:1012D0000020FCE710B50446206804F035F92060D2
:1012E000606804F031F9606010BD10B504462068F4
:1012F00004F03AF92060606804F036F9606010BDCF
:1013000010B50246002007E052F8203051F8204086
:10131000634042F82030401C0328F5DB10BD024634
:10132000002105E052F8210008B100207047491C57
:101330000329F7DB0120F9E770B504460D46206864
:1013400004F0ECF930B12946201DFFF7AEFF08B9D3
:10135000012070BD0020FCE710B50446206804F0B1
:1013600003F92060606804F0FFF86060A06804F092
:10137000FBF8A06010BD10B50446206804F0E4F846
:101380002060606804F0E0F8606010BD10B50446AD
:10139000206804F0E9F82060606804F0E5F8606017
:1013A00010BD70B502460C461146486D201A8D6E70
:1013B0002D6A28448D6E2D6AB0FBF5F605FB1603E9
:1013C000886D98420CD95D09486E50F8250003F0ED
:1013D0001F060125B54028435E094D6E45F82600DD
:1013E000002070BD816E0A6A0266704710B504461F
:1013F000A16EE06AC969B0FBF1F201FB1200606501
:101400000021A165E1652046FFF7ECFF10BD2DE945
:10141000F04180460D462E68D8F86800C069A0F1FA
:101420000807B6FBF7F414B90020BDE8F081601E90
:1014300004F084F8801C042101FB1060B0FBF7F479
:10144000204604F07BF807FB1461042202FB101015
:1014500028602046E9E72DE9FF4F87B083461F4605
:10146000DDE9149AB9F1000F03D100200BB0BDE8FB
:10147000F08FA9F10100069006A95846FFF7C7FFB3
:1014800005463CE039461698D04706460EB1304630
:10149000ECE70DB90020E9E705F00100C0F1020416
:1014A000A00004A90022A300CDE90072CDE902103A
:1014B0005846DDE90812FFF734FD0646049804F0AB
:1014C00043F80490059804F03FF805900EB13046BB
:1014D000CCE74FF000080AE004A850F8281016984E
:1014E000D04706460EB13046C0E708F10108601E3D
:1014F0004045F1DC04A951F820702D1B00BFC1E765
:101500002DE9F04F87B081460D4692461E46D5F82C
:101510000CB0286906900024294609F13C00FFF729
:101520000BFF78B1504604F00DF958B1D9F83C00E2
:1015300004F008F90746304604F004F9874201DC5C
:10154000A4F580647AE0069804F004F9ABEB000B94
:10155000069F042106AA28680B46CDE901B2039133
:1015600000904A4600214846FFF7DBFC05900598AD
:1015700018B1059807B0BDE8F08F069804F084F81C
:10158000784020F000400690504604F0DBF8F8B1B7
:10159000384604F0C3F8B0F5806F19D1384604F02E
:1015A000D1F88046301B04F0CDF8804510DC301BAC
:1015B000FE490840FE490843B84202D16FF00100DD
:1015C000D8E7384604F0B7F8002141EA8020044407
:1015D0000AEA0701301B00EA0A0081422DD1384691
:1015E00004F093F810B16FF00100C3E7384604F03F
:1015F000ADF80490129903F07AFF80460BF10401D4
:10160000DDE9102011442A684346CDE90208CDE9FE
:1016100000214A4600214846FFF783FC05900598C3
:1016200008B10598A6E7129AA2EB0801119A02EBFD
:10163000080005F094F838199CE700BF069804F0FC
:1016400089F8001D58457FF67EAF6FF0010091E7E5
:101650002DE9FE4305460E4617461C46DDF8288058
:10166000204604F073F88146002023463A4631466E
:101670008DE801032846FFF743FFBDE8FE832DE90F
:10168000FF4F91B005460C4692464FF0FF30109048
:10169000DAF80000A96E096A884205D2DAF8040077
:1016A000A96E096A884204D36FF0530015B0BDE8F3
:1016B000F08F00200E900F900026002736E00422C5
:1016C0000EA800EB870000235AF82710CDE900137D
:1016D000CDE9020213462A4600212846FFF721FCE5
:1016E00080460EA951F8270003F02EFF0EA941F8FD
:1016F0002700B8F1000F04D008F1540008B14046AB
:10170000D4E708F1540181B10EAB53F82710781CCF
:1017100000EBD0735B10A0EB43030DF1380C5CF8C9
:1017200023208B1A002B00DD3E467F1C022FC6DBD8
:10173000304606EBD0714910A6EB41015AF8211052
:101740002160701C00EBD0714910A0EB41015AF8E8
:1017500021106160304606EBD0714910A6EB4101C3
:101760000EAA52F82110A1600020E0600D90E0E187
:101770004FF000084FF0FF300C9000200B908D4987
:1017800003C9CDE9090100200890DDF84090A06868
:1017900003F0EAFEA060042204F10801501F04F0E7
:1017A0002FF80790A06803F0CFFEA0606BE10C98C3
:1017B00003F0D0FF8044042106AA2068CDE901820D
:1017C00003910090A86E2A460021C3692846FFF7BE
:1017D000A8FB07463FB107F1540010B90020A075DF
:1017E00052E1384662E7042206A9079804F008F897
:1017F0000790069803F048FF0C9948400690069819
:1018000003F07AFF90B90C9803F088FFB0F5A06F51
:1018100009D1E068A96E8969B0FBF1F201FB120001
:1018200008B9012000E00020A0752DE1069803F022
:1018300091FF4044A96EC969884202D90020A07571
:1018400022E106980C90069803F068FFB0F5A06FAF
:1018500044D1042205AB08F104002168CDE902322D
:10186000CDE90010A86E2A460021C3692846FFF77B
:1018700058FB07463FB107F1540010B90020A0758E
:1018800002E1384612E7059803F05EFE05900599DF
:101890000798884202D00020A075F5E0069803F072
:1018A00046FF0C9981EAC0700C90E86A079948409D
:1018B000E862CDF84090069803F04CFF4044E060A9
:1018C0000C9820610B98A0820998A0610A99E161A7
:1018D0000898E0754FF0FF300790D4E04FF0040B0C
:1018E00020E0012205AB08EB0B0120688DE80B001E
:1018F0000392A86E2A460021C3692846FFF711FB10
:1019000007463FB107F1540010B90020A0750EE062
:101910003846CBE6012205A9079803F071FF07902E
:101920000BF1010B069803F015FF5845D9D800BFFD
:10193000069803F0F3FE60B9069803F003FF0B99D5
:10194000884263DB069803F0FDFE401C80B20B90DA
:101950005CE0069803F0E2FEB0F5806F2ED10698A9
:1019600003F0E9FE0B99084480B20B900F4909EA95
:101970000100114908430699884202D149F0004903
:1019800044E009F10100E8B3069803F0DBFE83466A
:10199000484603F0D7FE834538DC069803F0CBFEBB
:1019A000002141EA8020814430E0000000FC0F006B
:1019B00000001040FC6D00080000F04F069803F096
:1019C000ADFEB0F5C06F21D1069803F0B0FE00F077
:1019D00001000890082209AB08F104002168CDE954
:1019E0000232CDE90010A86E2A460021C3692846BC
:1019F000FFF797FA074637B107F1540018B90020EE
:101A0000A07541E002E009A8FFF764FC069914986C
:101A100001401E9A1040814234D12068049008F1A0
:101A20000400059004AADDE9203006999847039048
:101A30000398002807DA0398543010B90020A075E5
:101A400022E0039832E6039810B9DDF8189018E008
:101A5000F7490698084009EA0101884202D14FF08F
:101A6000FF390EE0039802280BD1069803F06AFEB6
:101A70008346484603F066FE834502DC069840F044
:101A8000004900BF00BF92E600BFE068A8B321464E
:101A900005F13C00FFF750FCE8B1E86B03F052FEA3
:101AA0000746109803F04EFE874204D1109840F08C
:101AB000004010900FE01098401C60B1E86B03F0FC
:101AC00041FE0746109803F03DFE874203DA109866
:101AD000A0F5806010901F9848B1109803F032FE76
:101AE0000746A18A03F003FD81B21F980180109878
:101AF00003F002FE10B11098D8E50AE0109803F048
:101B000021FEA18A884202DA6FF00100CEE50020B2
:101B1000CCE5204603F0E0FD701C00EBD0714910CD
:101B2000A0EB41010EAA52F82110A1600D98401CB3
:101B30000D900D980228FFF61BAEBEA16068CDE99E
:101B4000000140F2E532BCA1C5A0236804F0BCFE50
:101B50006FF05300AAE57FB504460D4616460020F7
:101B6000431ECDE9003002903246294603902046BC
:101B7000FFF785FD04B070BD2DE9FF4F8DB007461E
:101B80000D4616462022C34905A804F0CFFD4FF0AC
:101B9000000A7BE0B86E006ABAEB500F04D36FF016
:101BA000530011B0BDE8F08F0AF1010A4FF00008B0
:101BB0000CE00BA850F828103046A8478146B9F130
:101BC000000F01D04846ECE708F10108B8F1020F18
:101BD000EFDB0BAA05A93846FFF7BDFF04460CB1A1
:101BE0002046DEE74FF000084BE003A800904FF0DE
:101BF000005040EA882040F00803A74A05A938466B
:101C0000FFF726FD8146B9F1000F05DA09F1020060
:101C100000B932E04846C4E703A8FFF7ACFB4846EA
:101C200003F081FD40F2022188420CD104988DE836
:101C300061003A4600213846039BFFF70CFC04463E
:101C4000D4B12046ADE71098B0B1484603F06BFD23
:101C5000B0F5007F10D14FF0000B0AE003A850F858
:101C60002B103046A84704460CB1204699E70BF1EB
:101C7000010BBBF1020FF1DB00BF08F101001FFAFD
:101C800080F8BDF828004045AFDC00BF0BA803F08A
:101C900028FD00283FF47EAFBC6A37E0A079012818
:101CA00000D032E0206B00F48030A0B1206B00F453
:101CB000801080B9E06A8DE861003A4604F1400185
:101CC0003846A36AFFF7C7FB8046B8F1000F01D082
:101CD000404666E700BF206B00F40030A0B1206BE7
:101CE00000F4801080B9606B8DE861003A4604F121
:101CF00040013846A36BFFF7AEFB8046B8F1000FFA
:101D000001D040464DE700BF00BF2468002CC5D17C
:101D1000002046E7F8B504460E4670E035E0E16D78
:101D2000E06D401CE065206E401E20664A09606E32
:101D300050F8220001F01F0301229A40104018BB06
:101D4000606D0844A26E126AB0FBF2F302FB13004E
:101D5000306005E0E06D401CE065206E401E2066AE
:101D6000D4E9160282420DD0E06D4009626E52F84D
:101D700020005C22125D02F01F0301229A401040F5
:101D80000028E7D10020F8BD00BFD4E91601814248
:101D9000C5D1206E68B927A00090616DE06D431831
:101DA0004FF4F77224A13DA004F08EFD6FF01B00EC
:101DB000E9E7D4E915100844A16E096AB0FBF1F215
:101DC00001FB12006065A26E216ED26AD00003F0A2
:101DD0008EFBA0650021E165A26ED16A606E04F001
:101DE000BEFC0123224637492046FFF7C5FE0546C3
:101DF00025B12046FFF7FAFA2846C4E700BF8DE771
:101E00002DE9FF4F83B0804616461C46DDF85490FE
:101E1000139DDDF850A005EB0900D8F86810C969DA
:101E2000884251D96FF0530007B0BDE8F08F000031
:101E300000FCFF7F000000002E2E5C546869726475
:101E400050617274794C69625C6C6974746C65661B
:101E5000732D322E322E315C6C66732E63000000BF
:101E600025733A25643A6572726F723A20436F7235
:101E70007275707465642064697220706169722083
:101E80006174207B307825782C20307825787D256A
:101E9000730A0000546F000800FC0F7025733A2588
:101EA000643A6572726F723A204E6F206D6F726580
:101EB00020667265652073706163652025752573E2
:101EC0000A000000A31300087BE04F462EB33068E1
:101ED000801C10BBD6E901010844A8421DD97068D6
:101EE000A84214D8D6E90120AA1A811A384603F06C
:101EF000FEFA07467268AA1AF06881183A465046F8
:101F000004F014FCBA443D44A9EB070959E0706899
:101F1000411B384603F0EBFA07462068801C10BBD3
:101F2000D4E901010844A8421DD96068A84214D828
:101F3000D4E90120AA1A811A384603F0D8FA0746D4
:101F40006268AA1AE06881183A46504604F0EEFB2F
:101F5000BA443D44A9EB070933E06068411B3846A9
:101F600003F0C5FA07466FF001002060D8F868005A
:101F70004169284603F0C2FA6060D8F868205169C8
:101F8000109AA81803F0C1FA0290D8F86800816A84
:101F9000029803F0ACFAA060D4E902026168CDE9CE
:101FA000001202904046DDE911230499FFF7A8FAD8
:101FB0008346BBF1000F03DA584607B0BDE8F08F47
:101FC00000BFB9F1000F80D10020F6E72DE9F047FE
:101FD00006460D469046344605F0805008B1F64856
:101FE00000E0F648074607EA0500216839408842C4
:101FF0000DD0206803F089FB48B9EF4805EA0001DD
:10200000EF4A20681040EF4A1043814202D101207C
:10201000BDE8F087284603F081FBB0F5806F11D151
:10202000284603F08FFB8146206803F08BFB814537
:1020300008DC284603F07FFB002141EA802021686C
:10204000084420600020E3E72DE9FF4F8FB00F46E2
:1020500015469946DDF88CA0DDF87080EFE0484623
:1020600003F078FB2844F968884226D2484603F0FA
:1020700071FB054404210EAA38680B46CDE90152D4
:102080000391009000210F9A1046FEF74AFF064682
:102090001EB1304613B0BDE8F08F0E9803F0F4FA8D
:1020A00080EA090040F000400E9038680C90281D2E
:1020B0000D900CACDDF838900FE01D9800280ADD7B
:1020C000D8F800000E90D8F8044008F108081D98D0
:1020D000401E1D9001E00020DCE7BB480B901E99DC
:1020E0000B9808400E9901401E9A0B9810401F9AB9
:1020F0001040814200D0A2E01E9803F023FB40B3C1
:102100000EA8B24900220592CDE9062108901D983B
:10211000CDE9010203924B46CDF8008004922A4695
:1021200039460F98FFF790FF0646002E01DA304639
:10213000B0E706B183E00E9803F004FB20998842D3
:1021400005DB0E9803F0FEFA2199884200DB76E069
:1021500000BF0E9803F0E7FA00286FD00E9803F046
:10216000E2FA40F20111884228D10E9803F0EEFA0B
:1021700086B20E9803F0E6FA0A900A998A1B229911
:10218000114409B2721C92B22498CDE9061A059244
:1021900008904FF000508E490022CDE90121531ED6
:1021A0002146CDE9030600920F98FFF74DFF8346C5
:1021B000BBF1000F01D058466CE73FE00E9803F0EA
:1021C000B2FAB0F5817F2BD1002623E0A3460E980A
:1021D00003F0B8FA22990844810206EB46001BF886
:1021E000200000F5407041EA005006EB46010BEB81
:1021F000810189680843099006EB46000BEB8000DB
:10220000426809992498D0470A900A9808B10A9818
:1022100040E7761C0E9803F099FAB042D6D80DE04C
:102220000022229842EA80200E9A811822462498A1
:10223000D04706460EB130462CE700BF00BF0EE780
:102240002DE9FF4107468846164601A85E4B0C3330
:102250005D4A414600903846FFF7FAF90546002DE1
:1022600005DAA81C18B1284604B0BDE8F081A81C06
:1022700088B101AC206803F067F92060606803F062
:1022800063F96060A06803F05FF9A06000BF01A976
:102290003046FFF735F80020E6E72DE9FE43074614
:1022A000884615461C4640F2FF30854207D149A0BA
:1022B00000882081022020700020BDE8FE8304F108
:1022C00008000090002040EA8520F96E491C40EA91
:1022D0000103414A41463846FFF7BAF90646002E47
:1022E00001DA3046E9E7304603F01DFA207001A814
:1022F00000904FF0005040EA852040F008032F4A3C
:1023000041463846FFF7A4F90646002E01DA30466A
:10231000D3E701A8FFF72FF8304603F004FA40F2A4
:102320000221884202D1029860600AE0304603F040
:10233000FAF940F20121884203D1304603F006FA4F
:1023400060600020B9E72DE9FF5F04460F4616469E
:102350002546D5F80080B146384603F0F7F90390DA
:10236000A868039903F0C3F882466868D9E90012A7
:102370005346CDE9020ACDE900124246002140460B
:10238000FEF798FE8346BBF1000F03D0584604B019
:10239000BDE8F09F384603F0D9F9A968884209D012
:1023A000384603F0D3F9A968884201D90120EEE745
:1023B0000220ECE70020EAE700FCFF7F00FC0F7042
:1023C00000FC0F000000F04F0000F07FCD1F000860
:1023D00000FC0F602F00000000FC0F782DE9FF4F7C
:1023E00089B080460E469346DBF800500C9818B131
:1023F00040F2FF310C980180DFF81C94D8F82000DF
:10240000B061D8F82410F161ACE000BFAFF23C013C
:10241000284604F0D6F90544AFF24801284604F0F6
:10242000DEF90446012C05D10122FCA1284604F066
:10243000B2F938B1022C07D10222F9A1284604F0E2
:10244000AAF908B92544E1E705EB040A0120089040
:1024500021E0AFF28001504604F0B3F98244AFF2BC
:102460008C01504604F0BBF9074607B914E0022F6F
:102470000DD10222EAA1504604F08DF938B908982E
:10248000401E0890089828B90AEB0705BEE708988F
:10249000401C0890BA44DCE700BF287818B94846C9
:1024A0000DB0BDE8F08FCBF80050484603F03BF983
:1024B000022802D06FF01300F2E7484603F042F919
:1024C00040F2FF3188421DD0484603F03BF94FF0FF
:1024D000005141EA802040F00800069006F1180003
:1024E0000090D04A31464046069BFFF7B1F807906E
:1024F0000798002801DA0798D2E706F11800FEF7DE
:10250000E9FE00BF2AE02F21284604F033F908B97C
:102510000C9800E00020CDE905850794049005A9FA
:10252000C14A04984FF0F043CDE90040CDE90221C3
:1025300006F1180231464046FFF7A1F88146B9F18D
:10254000000F01DA4846ABE7B9F1000F00D006E012
:10255000F07D10B96FF00100A2E700BFD3E700BF24
:10256000254400BF51E72DE9FF4106460C461746BA
:102570001D46D4E90001002332468DE8830003950F
:1025800006F110013046FEF72FFE8046B8F1000F2D
:1025900003D0404604B0BDE8F0812A463946E068E1
:1025A00003F02EF9E0606068284460600020F1E7E5
:1025B0002DE9F04F87B082460D46164699463046C3
:1025C00003F0C8F80746686838446969884204D946
:1025D0006FF01B0007B0BDE8F08F26F00041AA683D
:1025E00081EA020003F060F80690042306AA294657
:1025F0005046FFF7B8FF04460CB12046EAE706F064
:10260000004048B93B1F4A4629465046FFF7ABFFFA
:10261000044664B32046DDE7CB464FF0000822E0D5
:10262000012205ABDBF804004044DBF80010CDE9E3
:102630000232CDE90010381FA0EB080352460021FA
:102640005046FEF76EFC04460CB12046C2E701235B
:1026500005AA29465046FFF786FF04460CB12046DE
:10266000B8E708F10108381F4045D9D800BF26F067
:102670000040A8600020ADE72DE9F04F8BB0074681
:102680000C4660680A90E0680990B86E81690A9803
:10269000083002F03AFF054674E06068001D0890BB
:1026A0000899681A40F2FE3102F021FF089900EB08
:1026B000010BAB4505D2A5F10801584602F017FF02
:1026C00083464FF0FF300790042107AA20680B468D
:1026D000CDE901B2039100903A4600213846FEF759
:1026E00020FC8146B9F1000F06D009F1540018B161
:1026F00048460BB0BDE8F08F079802F0C5FFC04315
:10270000C00F0690069800F5A060484941EA0050C5
:102710000899ABEB010108430790A168079A81EA89
:10272000020002F0C1FF0490042204A9E06803F053
:1027300067F8E060E06802F017FF0590082204AB3C
:10274000D4E900018DE80B00039200233A4607F11B
:1027500010013846FEF748FD8146B9F1000F01D05F
:102760004846C6E7079802F0F1FF001D616808447B
:102770006060DDE9060181EAC070A0604FF0FF30C3
:10278000E06000BF6068A84287D300233A4607F1A3
:1027900010013846FEF70DFD8246BAF1000F01D058
:1027A0005046A6E726690A9800F1040853E04FF066
:1027B000FF3BB14626E00A98814505D1099883453B
:1027C00002D06FF0530094E7012108AA2068CDE9F8
:1027D00001920391009008F10400A0EB09033A462E
:1027E00000213846FEF79DFB8246BAF1000F01D06A
:1027F00050467EE7012208A9584603F001F88346B7
:1028000009F1010908F104008145D4D3BBF1000F9F
:102810000ED06FF053006CE700FC2F002E0000007C
:102820002E2E000000FC0F704723000800FC0F0054
:10283000A5EB080040F2FE3102F059FE00EB08065D
:10284000AE4205D2A5F10801304602F050FE064620
:1028500006F1040800BFAE42A9D3002049E72DE9E4
:10286000FF4707460C46002614E006F1010909EB74
:10287000D9704010A9EB400004EB80013846FFF707
:1028800049FA8046B8F1000F03D0404604B0BDE8D5
:10289000F087761C022EE8DB0020A060042204F101
:1028A000080000232168CDE90013CDE90202134698
:1028B0003A4600213846FEF734FB0546A06802F090
:1028C00043FEA06025B105F1540008B12846DDE7BC
:1028D000217A01F00101A0680844A0600420E060B2
:1028E000401F20610020A082401EA0610146E161DE
:1028F0000020A075E07500BFC8E710B5FA4C036B67
:10290000234040F2FF34A14203D0F84C44EA812432
:1029100000E000242343036340F2FF33994201D0D7
:10292000136800E00023436340F2FF33994201D073
:10293000546800E00024846310BD2DE9F041064690
:10294000884614460020A0610121E16100271CE0B7
:10295000B06E006AB7EB500F03D36FF05300BDE8C1
:10296000F0817F1C414604F11800FEF79EFC08B977
:102970000020F4E704F1180221463046FFF7EBF897
:1029800005460DB12846EAE700BF04F1180002F041
:10299000A8FE0028DCD06FF00100E0E770B5044627
:1029A0000D46206B2844206304F1300002F0DDFE68
:1029B000216B60F3DF71216370BD2DE9F04786B0B4
:1029C00006468A46144637463D68A046082204ABB0
:1029D000D8E900018DE80B000392A86E2A4605F1A4
:1029E0001001C3692846FEF79CFA8146B9F1000F31
:1029F00003D0484606B0BDE8F08704A8FEF76AFC9D
:102A0000391D04A8FEF751FC08B10120F2E70020AF
:102A1000F0E72DE9F04188B006460F461446002045
:102A2000A0610121E161804626E0B06E006AB8EB4A
:102A3000500F04D36FF0530008B0BDE8F08108F1E7
:102A400001080596386806907968079105A8A84995
:102A50000022A84BCDE90032CDE90210A64B04F1CB
:102A6000180221463046FEF70AFE05461DB1A81C95
:102A700008B12846E0E700BF04F1180002F031FE7B
:102A80000028D2D06FF00100D6E72DE9F04790B0D2
:102A900005468A46144605F120015046FEF705FC1E
:102AA00018B92068286261686962AE6A17E006F1A9
:102AB00008015046FEF7F9FB18B92068B06061685C
:102AC000F160B079022809D106F12C015046FEF7D9
:102AD000ECFB18B92068F062616831633668002E3B
:102AE000E5D108AA51462846FFF793FF0746002F75
:102AF00005DAB81C18B1384610B0BDE8F087B81C2C
:102B0000002854D001212846FFF748FF40F2FF3645
:102B100008A905F13000FEF70FFC00281ED0286B35
:102B200002F010FE0646AFF6F4410998CDE90161C6
:102B3000009040F6C972AFF6005170A0089B03F0F8
:102B4000C3FE002240F2FF312846FFF7D6FE38468A
:102B500002F0F8FDB04201DDA7F580672046FEF7E0
:102B6000C4FB0020049005900690079040F2FF30CF
:102B7000864203D05D4840EA862000E00020022320
:102B8000CDE90674049004AA08A9284600F091FF34
:102B900081462046FEF79EFBB9F1000F01D0484662
:102BA000AAE74FF0FF312846FFF7F8FE00BF08AA5A
:102BB00051462846FFF7C1FE8046B8F1000F04D009
:102BC00008F1020008B1404696E708F1020000282B
:102BD0004CD040F2FF3608A905F13000FEF7ACFBFF
:102BE000B8B1286B02F0AEFD0646AFF6B8510998B1
:102BF000CDE90161009040F6ED72AFF6C4513FA0FF
:102C0000089B03F061FE002240F2FF312846FFF7E7
:102C100074FE2046FEF769FB0020049005900690A4
:102C2000079040F2FF30864203D0304840EA8620C9
:102C300000E0002004909DF8370000F5C0603F4997
:102C400041EA005040F008000223CDE9060404AA3E
:102C500008A9284600F02DFF80462046FEF73AFBE3
:102C6000B8F1000F01D0404646E700BF002043E71F
:102C70002DE9F04104460D461646274633462A46BE
:102C8000D7E90001FFF794FCBDE8F0812DE9F04F92
:102C90008BB005460C4690469946DDE9157BDDF87C
:102CA00050A02846FEF79EFB03A92846FFF7D7FD54
:102CB00006461EB130460BB0BDE8F08FE07D8DF8C2
:102CC0002300A0690990E1690A914B46424603A995
:102CD0002846CDE9017BCDF800A000F06BF8064650
:102CE0000EB13046E7E72BE0FF0300800000F04F15
:102CF000BB29000808000020FF03F07F25733A2558
:102D0000643A64656275673A20466978696E67203F
:102D10006D6F7665207768696C652072656C6F638E
:102D20006174696E67207B307825782C2030782597
:102D3000787D20307825780A25730A0000FC0F0082
:102D40000398A0610499E1610120E07505F120017B
:102D50002046FEF7AAFA20B91FB903982862049901
:102D600069620020A7E702460B4611460868401C2E
:102D700008600020704738B5054600200090002309
:102D80006A46E7492846FEF7F7FE04460CB120469E
:102D900038BD0098FCE72DE9F04104460D46174682
:102DA0002646284602F0D6FC3168084430600020F0
:102DB000BDE8F0812DE9F04F9BB005460C469246E8
:102DC0009B46DDE925782068199060681A900020FC
:102DD0001890179058E00020169016A9D14A784212
:102DE00000B2CDE90580CDE907210020CE49431E80
:102DF0000246CDE900ABCDE90307029128462499AC
:102E0000FFF722F906461EB130461BB0BDE8F08F31
:102E1000A8EB0700FF2811DAAA6ED2E906125008C3
:102E200002F073FB1590A96EC969A1F124001599F0
:102E300002F05DFB1699884200D329E0A8EB070059
:102E400000EBD071C1F34F0907EB090080B2249960
:102E50005B465246CDE90108009121462846FFF71E
:102E600015FF06465EB106F11C0030B9A86EC069B8
:102E700024381699884200D30AE03046C5E707EBAC
:102E800009001FFA80F800BFA8EB07000128A2DCA8
:102E900000BFA068401CA060A86E406A002843DD07
:102EA000A168A86E406A401C40F00100B1FBF0F23E
:102EB00000FB1210002837D19C4903C9CDE9150148
:102EC00015A92046FEF7F1F900282AD12846FFF778
:102ED00052FF8146B9F1000F01DA484695E7A86E26
:102EE000006AB9EB500F1BD291A000904FF4C06262
:102EF000904991A0A36803F0E7FC24985B465246F2
:102F000021468DE881012846FFF7C0FE064626B11E
:102F100006F11C0008B1304677E706B9B84600BF95
:102F200002E001201790D8E051E118227F490831D2
:102F30000CA803F0FBFB60680C90A86EC069083811
:102F4000119028466168FEF7A6F906462EB106F1F3
:102F5000540000B9C1E0304657E7A06802F004FB16
:102F6000A060042304F108020CA92846FFF7FBFA2D
:102F70000646A06802F0E8FAA0602EB106F15400FF
:102F800000B9AAE0304640E70CA8CDE9155015A9D4
:102F9000754A784200B2CDE90580CDE907210020CD
:102FA0006149431E0246CDE900ABCDE9030702911A
:102FB00028462499FFF748F806462EB106F154003A
:102FC00000B98AE0304620E704F1180002F089FBDE
:102FD000E8B904F11800FEF788F9E07D00F5C0605B
:102FE000624941EA005040F0080204F118030CA9BC
:102FF0002846FFF7DDFA064604F11800FEF76AF9E5
:103000002EB106F1540000B967E03046FDE600201D
:1030100009900A900B90189848B905F13C0109A84D
:10302000FEF76EF905F1300109A8FEF769F905F11F
:10303000480109A8FEF764F909986FF3090009909F
:1030400009AA21462846FFF7FBF806460EB130468E
:10305000DBE609A8FEF763F980B909A8FEF77CF959
:1030600009AB434A0CA92846FFF7A2FA06462EB13F
:1030700006F1540000B930E03046C6E60CA92846F7
:10308000FFF7FAFA06462EB106F1540000B924E023
:103090003046BAE6204602F01FFBA8EB0700A082EC
:1030A0000D98E0600E982061002012901390314A34
:1030B0001490D2E900109268CDE9130212910846EB
:1030C0001399C5E91312A864189828B9D5E90D1207
:1030D000286BC5E91012E8637AE00120189005F129
:1030E0001001284602F0F4FA179840B910A0009099
:1030F00040F295620F4920A0636803F0E5FB0B499D
:10310000203103C9CDE9150115A92046FEF7CDF8F8
:1031100028B907A0009040F29A6206493EE044E0D8
:10312000672D0008972D000800FC0F40106E000866
:1031300000000000381E000825733A25643A6465D3
:103140006275673A20457870616E64696E672073B6
:1031500075706572626C6F636B2061742072657646
:1031600020257525730A0000712C000800FC0F0053
:103170000CFCFF7F046E000825733A25643A6465F1
:103180006275673A2042616420626C6F636B2061F4
:1031900074203078257825730A000000F9A0636850
:1031A00003F092FB6FF01B002FE6211D2846FEF76F
:1031B000B1FD8146B9F1000F06D009F11C0008B934
:1031C000179808B9484620E60020179000BFACE6E3
:1031D00000BF1898C0B1F8A3D4E900101A9ACDE93D
:1031E0000203CDE9002140F2AB62F449F4A0199B3F
:1031F00003F06AFB224619A92846FFF746FC06465B
:103200000EB1304601E600BF0020FEE5F0B589B002
:1032100005460C468BE008A92846FEF77BFD0646CE
:1032200016B1304609B0F0BD28460899FEF733F8CC
:1032300006462EB106F1540000B968E03046F1E7C9
:10324000002748E0206B00F48010D0B1012107AACC
:10325000A088E94B43EA8020CDE9037205910290F2
:10326000E649E06BC01B04F140030022CDE90001F8
:1032700004F108012846FEF7C3FD0646A6B1304614
:10328000D0E7012107AAA06BCDE90172039100905C
:10329000E06BC31B2A4604F140012846FDF741FEBE
:1032A00006460EB13046BDE7012007A9089A03463D
:1032B000CDE90027CDE902102A4605F11001284684
:1032C000FDF792FF06462EB106F1540000B91EE04C
:1032D0003046A7E77F1CE06BB842B3D8AB6E9A6A62
:1032E000E969E06C03F022FA286920646969616485
:1032F000A969A16405F110012846FDF705FE0898AB
:10330000A063206B40F40030206300208AE7AAA06D
:10331000009040F64B22A949AFF2A410089B03F09D
:10332000D3FA05F11001284602F0D2F900BF72E786
:103330002DE9FF4F89B01F46DDE916B8DDF8609032
:10334000BCE008A90998FEF7E5FC04461CB120463C
:103350000DB0BDE8F08FDDE90810FDF79CFF0446D5
:103360002CB104F1540000B999E02046F0E7BBF11C
:10337000000F06D10898C8F800000020C9F8000026
:10338000E6E7ABF10100079007A90998FEF73FF8BF
:1033900082460798401C07900998806EC06907997B
:1033A000884232D0002525E0012005A9CDE900752D
:1033B000CDE902100798431B00210B9A0998FDF7ED
:1033C000B0FD04460CB12046C2E7012005A9089AC9
:1033D0000346CDE90025CDE9021009A807C8FDF78D
:1033E00003FF04462CB104F1540000B957E0204615
:1033F000AEE76D1C07988542D6D30898C8F8000040
:103400000798C9F800000020A2E70AF1010A504617
:1034100002F08BF8461C0697002536E0069802F06D
:10342000A3F80690042106AAA800089BCDE9003065
:10343000CDE90221012309A807C8FDF7D5FE0446FE
:10344000069802F081F806902CB104F1540000B9FE
:1034500025E020467CE7701EA84215D0042106AA6C
:10346000A800069BCDE90030CDE902210B460021E2
:103470000B9A0998FDF755FD0446069802F064F88A
:1034800006900CB1204663E76D1CB542C6D3089880
:10349000C8F80000B000C9F80000002058E746A0B6
:1034A000009040F61B124549AFF23430089B03F000
:1034B0000BFADDE9090102F00BF900BF41E72DE944
:1034C000FF4F85B08346DDE91478129E46B94FF070
:1034D000FF3038600020C8F8000009B0BDE8F08F68
:1034E000701E049004A95846FDF791FF044613A9E5
:1034F0005846FDF78CFF05462BE0204602F015F8F4
:10350000611B0390481C02F009F8401E02900399C9
:1035100001F0EDFF8146042108AA4FEA8900089BCB
:10352000CDE90030CDE902210B465846DDE906120F
:10353000FDF7F7FC8246089802F006F80890BAF109
:10354000000F01D05046C8E7012000FA09F0241A04
:1035500000BFAC42D1D8089838601398C8F8000072
:103560000020BAE770B506460C46606BE063304653
:10357000FDF738FF21463046FFF748FE0546FDB30C
:10358000284670BD25733A25643A7761726E3A20F9
:103590005375706572626C6F636B2030782578208C
:1035A000686173206265636F6D6520756E777269FF
:1035B0007461626C6525730A00000000381E000803
:1035C00025733A25643A64656275673A2052656CE2
:1035D0006F636174696E67207B307825782C2030AA
:1035E0007825787D202D3E207B307825782C203062
:1035F0007825787D25730A000000102000FCF7FF75
:10360000FFE7206B20F480102063002070BD2DE9BF
:10361000F04F85B005460C4692461F46CDF810A0E7
:10362000B846206B00F4802050B12146284600F0B7
:10363000A8F906461EB1304605B0BDE8F08F00BFC0
:10364000208E00F4006028B1616BE06A814201D2F3
:10365000E06A6063606B3844296F884202D96FF07A
:103660001A00E9E7206B00F40030D0B9616BE06A22
:10367000814216D9D4F83490E06A60630DE00020EE
:103680000390012303AA21462846FFF7C0FF064600
:10369000002E01DA3046CFE700BF606B4845EED31D
:1036A00000BF206B00F4801010B3626B02EB0800C7
:1036B000E16A01F015FF8146AA6ED269D108AA6EAF
:1036C000906A01F014FF0646314640F2FE3001F0E8
:1036D0000EFF81450CD921462846FFF743FF0646D9
:1036E0002EB1206B40F4002020633046A4E700BFD9
:1036F0009EE0206B00F4003020B1E06BA96EC96938
:1037000088424FD1206B00F48010E8BB206B00F49E
:10371000003008BB606BF8B104F13C010A1F606B1C
:10372000401EE36ACDE90030CDE902210A1D0021E7
:103730002846A36AFFF7C3FE8346BBF1000F05D0FE
:10374000206B40F400202063584675E704F14001E7
:103750002846FDF7D9FB00BF2846FDF743FE04F1DC
:103760003C00011F626BCDE9002102902A46011D39
:103770002846A36BFFF7DCFD8146B9F1000F07D0A7
:10378000206B40F4002000E003E02063484653E74C
:1037900004E06FF00100A063606BE063206B40F415
:1037A00000302063A86EC069E26B811A404601F0C8
:1037B0009EFE06462BE00498D4E90E120123CDE9C3
:1037C0000206CDE900122A4604F140012846FDF721
:1037D0000BFD8146B9F1000F09D009F1540000B981
:1037E00006E0206B40F400202063484624E70FE009
:1037F00021462846FFF70AFD8146B9F1000F05D0A2
:10380000206B40F400202063484615E700BFD2E754
:1038100000BF606B30446063E06B3044E063049849
:1038200030440490A8EB06082846FDF7DBFD00BFF6
:10383000B8F1000F7FF45DAF206B20F4002020630F
:103840003846F9E62DE9F04F87B006460C46924619
:103850001F46D046B946206B00F4003050B12146D7
:10386000304600F08EF805461DB1284607B0BDE889
:10387000F08F00BF616BE06A814201D30020F5E761
:10388000626BE06A811A384601F031FE0746B9469C
:1038900072E0206B00F4802020B1E06BB16EC9694A
:1038A000884222D1206B00F48010A8B904F13C02B8
:1038B000101F636BE16ACDE90013CDE90202121D0E
:1038C00000213046A36AFFF7FAFD8346BBF1000FE3
:1038D00001D05846CAE704E06FF00100A063606BB6
:1038E000E063206B40F480202063B06EC069E26B1F
:1038F000811A484601F0FBFD0546206B00F480105C
:10390000E0B1A088FA4A42EA8020E16BCDE9048563
:10391000CDE90201F749B06EC06904F1400300220D
:10392000CDE9000104F108013046FEF769FA83464B
:10393000BBF1000F01D0584698E713E0D4E90E011F
:103940008DE803010395B06E04F140020021C369C4
:103950003046FDF7E6FA8346BBF1000F01D058462A
:1039600084E700BF606B28446063E06B2844E06339
:10397000A844A9EB050900BFB9F1000F89D1384669
:1039800074E7F0B597B005460C46206B00F4802034
:1039900060B1206B00F4801020B904F1400128468A
:1039A00001F096FE206B20F480202063206B00F451
:1039B000003000287BD0676B206B00F4801000285B
:1039C00062D15422CC4902A802F0B0FEA06A0C9049
:1039D000E16A0D91606B0F9095E80F0012AE0FC673
:1039E0002946284601F074FE22E0012301AA02A91B
:1039F0002846FFF727FF0646002E02DA304617B0AA
:103A0000F0BD012301AA21462846FFF700FE064625
:103A1000002E01DA3046F2E72868401C38B112A9BE
:103A2000284601F055FE2946284601F051FE00BF08
:103A3000616BE06A8142D8D323E001232A4604F176
:103A400040012846FDF769FB06462EB106F15400F9
:103A500000B902E03046D2E714E0AFF2A440009093
:103A600040F69822A549AFF6F000A36B02F02CFFB8
:103A700021462846FFF7CAFB06460EB13046BEE790
:103A800000BFDAE700BF04E0E16A606B01F028FDE7
:103A90006063A06BA062616BE162206B20F4003078
:103AA0002063206B40F480302063676300BF0020F8
:103AB000A5E72DE9F047A0B006460C461746984604
:103AC000B56A2BE005F10800844226D02146FDF7B7
:103AD000ECFB10BBA87901281FD1286B00F48010E3
:103AE000D8B1E86AB16E896A884216D9294630464B
:103AF000FFF738FD8246BAF1000F03D0504620B0E0
:103B0000BDE8F08729463046FFF73BFF8246BAF111
:103B1000000F01D05046F2E700BF2D68002DD1D133
:103B20002022214618A802F001FEA94600BF36E077
:103B300057F8350001F0F7FD40F20141884203D10A
:103B4000A08A401CA08229E057F8350001F0EBFD67
:103B500040F2FF41884205D1A08A401EA0824FF06A
:103B600001091BE057F8350001F0D8FDB0F5C06F32
:103B700014D107EBC50040680068A06107EBC500E1
:103B800040684168E16157F8350001F0D0FD00F070
:103B90000100E07504F11800FDF79CFB6D1C454524
:103BA000C6DBB9F1000F25D0A08A18BB10AA2146A8
:103BB0003046FEF7C2FE054645B1A81C30B12022B2
:103BC00018A9204602F0B2FD284698E7A81C80B14B
:103BD0009DF8570068B1224610A9304600F068F9F8
:103BE000054635B1202218A9204602F09FFD28463F
:103BF00085E700BFA07D10B9A08AFF2877DB1822D7
:103C00003D4934390DA802F091FD20680D90E0681F
:103C10000E9020690F90E0681190B06EC06908386E
:103C2000129004F11800FDF760FB0DA8CDE91660B5
:103C300016A8334900220592CDE90621CDE901827B
:103C4000039200970492089021463046D4E903235A
:103C5000FEF7FAF9054604F11800FDF73BFB65B1E4
:103C600005F11C0008B1383000B97FE0202218A906
:103C7000204602F05BFD284641E700200A900B90A9
:103C80000C9006F130010AA8FDF73AFB06F13C0161
:103C90000AA8FDF735FB06F148010AA8FDF730FB3D
:103CA0000A986FF309000A900AA8FDF738FB58BB81
:103CB0000AAA21463046FEF7C3FA054635B120224E
:103CC00018A9204602F032FD284618E70AA8FDF799
:103CD00043FB0AAB0B4A0DA93046FEF769FC0546CB
:103CE00095B105F11C0008B1383070B93EE03CE0F8
:103CF0000000102000FCF7FF786E0008381E000856
:103D0000712C00080CFCFF7F06E0202218A9204639
:103D100002F00CFD2846F2E60DA93046FEF7ACFC99
:103D2000054665B105F11C0008B1383000B91DE049
:103D3000202218A9204602F0F9FC2846DFE60E985A
:103D4000E0600F982061D6E90D12306BC6E91012C1
:103D5000F063002013901490FE4A159007CA13AB2D
:103D600007C3C6E91312B0641AE000BF06F11001E0
:103D7000304601F0ADFCA08A002143463A46CDE929
:103D80000041029021463046FFF714F8054635B150
:103D9000202218A9204602F0C9FC2846AFE600BF41
:103DA000B56A5CE005F10800A04257D018A9FDF7FC
:103DB0007CFAB0BB2022214605F1080002F0B6FCD7
:103DC0004FF0000A48E057F83A0001F0ACFC40F22E
:103DD000FF4188420CD157F83A0001F0B3FCA988A2
:103DE000884205D14FF0FF30A8600146E96031E01C
:103DF00057F83A0001F097FC40F2FF41884211D198
:103E000057F83A0001F09EFCA98888420ADAA8888F
:103E1000401EA880A87902281CD1A86A401EA8626A
:103E200018E01BE057F83A0001F07DFC40F2014138
:103E300088420FD157F83A0001F084FCA9888842E3
:103E400008DCA888401CA880A879022802D1A86AAA
:103E5000401CA8620AF1010AC245B4DB2D68002D9E
:103E6000A0D1B56A20E018A905F10800FDF71DFAF8
:103E7000C8B911E0A988A88B081AA88005F120020A
:103E800005F108013046FDF766FE8246BAF1000FE3
:103E900001D0504633E600BFA988A88B814202DBDF
:103EA000E87F0028E6D12D68002DDCD1002026E631
:103EB0002DE9FC4106460F46144606F1480221460C
:103EC0003046FEF7BDF9054615B12846BDE8FC8130
:103ED00004F11800FDF709FAE07D00F5C0609E4985
:103EE00041EA005040F00800009004F1180001235E
:103EF00001906A4639463046FFF7DBFD054604F17E
:103F00001800FDF7E7F90DB12846DFE70020DDE7EF
:103F1000F0B5A1B0064606F1300001F026FC10B95C
:103F2000002021B0F0BD20228C4919A802F0FEFB30
:103F300088E01FAA11A93046FDF70DFE05460DB118
:103F40002846EEE79DF87B00002875D109AA1FA935
:103F50003046FEF75EFD0446002C03DAA01C08B1D3
:103F60002046DEE7A01CB0B9AFF6B41119A8C069AD
:103F7000CDE9000141F24A0279497AA01F9B02F083
:103F8000A3FC11AA19A93046FFF792FF05460DB10F
:103F90002846C6E756E007A823467D4A09A90090AF
:103FA0003046FDF755FB0746002F01DA3846B8E7E3
:103FB00007A8FDF78FF91FA807990268914203D15E
:103FC00008994268914207D007994268914205D109
:103FD00008990268914201D1012100E000210029E5
:103FE00029D1AFF62C2319AADDE90710D269CDE952
:103FF0000203CDE900214FF48352594965A01F9B6C
:1040000002F062FC07A8FDF770F95449203103C99A
:10401000CDE9050107A80123069005AA19A9304694
:10402000FFF747FD054607A8FDF754F915B12846E7
:1040300077E701E006E000BF202211A919A802F0ED
:1040400075FB00BF1FA801F04CFB00283FF471AFC7
:1040500000BF306B01F07AFB404244B2214630464B
:10406000FEF79CFC00205CE7F0B58DB0044604F13F
:104070003C0001F084FB10B900200DB0F0BDE06BF6
:1040800001F060FB0746AFF6D021606CCDE901710D
:10409000009041F2170232494EA0236C02F014FC4A
:1040A00004F1400203A92046FDF755FD05460DB178
:1040B0002846E2E7E06B01F045FB0646002240F2AD
:1040C000FF312046FEF719FC00200B900C904D4864
:1040D00040EA862001230B900BAA03A92046FFF794
:1040E000E8FC05460DB12846C7E70020C5E770B5D6
:1040F00005462846FFF7B8FF04460CB1204670BDC0
:104100002846FFF705FF04460CB12046F7E70020DC
:10411000F5E773B5A8B005462846FFF7E8FF044663
:1041200014B120462AB070BDA86A149013AB29AA16
:1041300016A92846FEF752F90446A01C28B9BDF876
:104140004C0040F2FF31884261D1002C5CDA2046FD
:10415000E8E70000386E000800FC0F00746F0008EC
:10416000381E000825733A25643A64656275673A1B
:1041700020466978696E67206F727068616E207B77
:10418000307825782C20307825787D25730A00003A
:1041900000FCFF7F25733A25643A64656275673ACF
:1041A00020466978696E672068616C662D6F727051
:1041B00068616E207B307825782C20307825787DDA
:1041C000202D3E207B307825782C20307825787D76
:1041D00025730A0025733A25643A64656275673A67
:1041E00020466978696E67206D6F7665207B307830
:1041F00025782C20307825787D2030782578257317
:104200000A0000000000F04F6FF010008AE72998C4
:1042100002F0BAFA0646E86EB04202D26FF023000E
:1042200080E72846FDF7DEF80BA92846FEF717FBC6
:1042300004460CB1204675E7202216A903A802F017
:1042400075FA08E009AA03A92846FDF784FC04468C
:104250000CB1204666E79DF823000028F2D109A89A
:10426000FDF743F8FE4903C9CDE9260109A801235A
:10427000279026AA0BA92846FFF71BFC044609A88D
:10428000FDF728F80CB120464CE714A8C07F58B3BE
:1042900001212846FEF782FB00208DF85600ADF87C
:1042A000540014A8A8620BA8FDF71FF8EC490831C8
:1042B00003C9CDE901010BA80123029001AA03A9BA
:1042C0002846FFF7F6FB04460BA8FDF703F81CB1E0
:1042D0001498A862204625E71498A8624FF0FF3191
:1042E0002846FEF75BFB00BF0BA8FCF7FEFF202172
:1042F0001EA802F034FABDF84C00DA4941EA8020E9
:104300001E90BDF84C004FF4001141EA802030436C
:1043100020901EA82999C160BDF84C004FF00051B3
:1043200041EA802040F008000BA922901EA84161BC
:1043300014A8C07F08B9CC4800E000200BA9249045
:104340001EA80423C1611EAA16A92846FFF7B1FBC7
:1043500004460BA8FCF7BEFF0CB12046E2E60020A5
:10436000E0E62DE9F74384B005460C46002306AA93
:1043700004F108012846FEF731F80746002F03DA5A
:10438000384607B0BDE8F083384601F0CCF9022882
:1043900002D06FF01300F4E7384601F0D3F940F291
:1043A000FF31884204D1286A0290686A03901BE0BA
:1043B000384601F0C7F94FF0005141EA802040F043
:1043C000080902A84B46A94A04F1080100902846B2
:1043D000FDF73EF98046B8F1000F01DA4046D0E71C
:1043E00002A8FCF777FF00BF02AA04F108012846E3
:1043F000FDF7B1FB06460EB13046C2E7A068E062A9
:10440000E16821630020A080A0620220A071A86A58
:104410002060AC620020B4E7024602F1280007E009
:1044200003688B4203D103681B68036003E00068E4
:104430000368002BF4D100BF002070472DE9F04144
:1044400080460C4615464FF48471284602F087F9E1
:10445000A06A50B90220287085A000882881A06A2F
:10446000401CA0620120BDE8F081A06A01280BD1A8
:10447000022028707FA105F1080002F099F9A06AD6
:10448000401CA0620120EEE729E0A188A08B8142B8
:1044900011D1E07F08B90020E5E704F1200204F122
:1044A00008014046FDF757FB07460FB13846DAE7EB
:1044B0000020A08000BFA2882B4604F108014046DE
:1044C000FDF7EBFE06461EB1B01C08B13046CAE748
:1044D000A088401CA080B01C00B101E000BFD4E760
:1044E00000BFA06A401CA0620120BCE770B5064670
:1044F0000C4604F12C0204F108013046FDF72BFBB9
:1045000005460DB1284670BD0020A080A06200BF06
:10451000F9E72DE9F04180460C4615462146404614
:10452000FFF7E4FF064616B13046BDE8F0812946A4
:10453000022000F0DCFFA062A06A2D1A45B108F14C
:10454000200104F12C00FCF7B0FE08B9012000E0C6
:104550000020A08024E0A18BA288881A294600F0C0
:10456000C6FF0746A0883844A080A06A3844A062ED
:10457000ED1BA188A08B814211D1E07F10B96FF0B3
:104580001500D2E704F1200204F108014046FDF7CE
:10459000E2FA06460EB13046C7E70020A08000BF11
:1045A000002DD8D10020C0E70246886A70472DE967
:1045B000F04387B081460C46206B00F4002018B110
:1045C000002007B0BDE8F08321464846FFF7D9F93F
:1045D00005462DB1206B40F4002020632846F0E70B
:1045E000206B00F48030002850D004F1080001F066
:1045F00078F800284AD1206B00F4801028B140F2EE
:104600000126E76CD4F82C800BE040F20226D4E9B6
:104610000A01CDE9010101A8FCF7B8FE01AF4FF096
:1046200008083005A18840EA812040EA0800CDE969
:104630000307A0884FF0815141EA8020216D8968ED
:1046400008430590206D41680223069103AA04F1F6
:1046500008014846FFF72DFA054695B1206B0BE09F
:104660005C6E00080000104008FC0F6000FC0F703A
:104670002E0000002E2E000040F40020206328466B
:104680009FE7206B20F48030206300BF002098E774
:1046900070B505460C4621462846FFF788FF0646BA
:1046A00005F1280007E00168A14203D1016809680B
:1046B000016003E0006801680029F4D100BF206DAB
:1046C000006810B9E06C00F0FCFF206B20F40010D3
:1046D0002063304670BD2DE9FF4F87B007460C467A
:1046E0009846DDF850A008F0030001280BD03846AA
:1046F000FFF7FDFC8146B9F1000F03D048460BB02F
:10470000BDE8F08F00BFC4F850A048F4001020634B
:1047100000206063E0630021E164231D09AA191DE4
:104720003846FDF75BFE0646002E08DAB01C20B9BD
:10473000A08840F2FF31884201D1354612E10120C4
:10474000A071B86A2060BC62B01C98BB08F480708D
:1047500010B96FF0010505E1099802F015F88146DE
:10476000F86E484502D26FF02305FBE0182101A83E
:1047700001F0F5FFA088FB4941EA80200190A08864
:104780004FF4801141EA802040EA09000390099922
:104790000491A088F44941EA80200323059001AAEE
:1047A00004F108013846FFF784F905461DB16FF0A2
:1047B0002305D7E001E0EC4E32E008F4007010B1C0
:1047C0006FF01005CEE0304600F0ADFF012802D0BA
:1047D0006FF01405C6E008F4806040B1A088E2499B
:1047E00041EA8026206B40F48030206318E004F119
:1047F00028000090A0884FF0005141EA802040F04E
:104800000803DA4A04F108013846FCF721FF06469E
:10481000002E01DA3546A5E004F12800FCF7ABFDD7
:104820004FF000094BE094F8300000F0030002283C
:104830002CD0206D406809EB490100EB81004068F5
:104840000090206D406809EB490110F8210000F547
:1048500040700005A18840EA8120216D496809EB7C
:10486000490201EB8201896840EA0103C04A04F170
:1048700008013846FCF7ECFE8346BBF1000F04DA72
:104880000BF1020008B15D466CE000BF94F8300007
:1048900000F00300012810D0206D406809EB4901A9
:1048A00000EB81008068796F884202D96FF01B05A8
:1048B00058E0206B40F48030206309F10109206D3D
:1048C00080684845AFD8206D006818B1206D016838
:1048D000E16409E0B96E886A00F0ECFEE064E06C27
:1048E00010B96FF00B053DE004F140013846FCF7CC
:1048F0000BFB304600F017FF40F2012188422FD118
:104900006FF00100A062304600F020FFE062206BF3
:1049100040F480102063A06A206400216164B86EB6
:10492000816AA164E06AD8B140F2FE31A06C00F067
:10493000DEFDA1884FF0005242EA812140EA010BDE
:10494000E06C5B46894A04F1080100903846FCF7A8
:104950007FFE8146B9F1000F01DA4D4602E000BF4B
:104960000020CCE6206B40F400202063214638462E
:10497000FFF78EFE2846C2E62DE9F84304460D46B1
:1049800016461F467B483B46324629460090204645
:10499000FFF7A1FE80464046BDE8F8832DE9F047C9
:1049A00080460C4615461E4621464046FEF7E9FF66
:1049B0008146B9F1000F02D04846BDE8F087676B29
:1049C0000EB92F4608E0012E02D1606B471903E0B3
:1049D000022E01D1E06A4719D8F87000B84202D21D
:1049E0006FF01500E9E767633846E6E770B50546FE
:1049F0000C46206B00F4003020B1E16A606B00F0DF
:104A00006FFD70BDE06AFCE72DE9FF4782460C466A
:104A10001546B5F1004F04D36FF0150004B0BDE8A2
:104A2000F087D4F8349021465046FFF7DFFF064662
:104A3000B54225D221465046FEF7A3FF8046B8F185
:104A4000000F01D04046E9E704F13C00011FE26A93
:104A5000CDE90025CDE90210021D00215046A36AD0
:104A6000FEF72DFD8046B8F1000F01D04046D5E796
:104A7000A06BA062E562206B40F4A020206324E0DC
:104A8000B54222D9606BB0420CD0022300222146ED
:104A90005046FFF783FF8046B8F1000F01DA404629
:104AA000BCE700BF0EE000200390012303AA2146CB
:104AB0005046FEF7ACFD8046B8F1000F01DA4046E3
:104AC000ACE700BF606BA842EDD300234A46214605
:104AD0005046FFF763FF0746002F01DA38469DE78F
:104AE00000209BE70246486B704770B505460E46AE
:104AF00000231A4631462846FFF750FF0446002C93
:104B000001DA204670BD0020FCE72DE9F74189B0AD
:104B10000746144600230AAA01A93846FDF75EFCA1
:104B20000546002D03DA28460CB0BDE8F081284682
:104B300000F008FE80462346424601A93846FDF7AC
:104B4000ACFB06463046EFE72DE9F34198B0054649
:104B50002846FFF7CCFA044674B120461AB0BDE8E7
:104B6000F0810000000010400000102000FC0F70D9
:104B700000FCFF7F6C6E0008002319AA0EA92846CE
:104B8000FDF72CFC0646002E06DB304600F0DAFD71
:104B900040F2FF31884206D1002E01DA3046DDE7CF
:104BA0006FF01500DAE7A86A0490304600F0BBFD0C
:104BB000022837D1304600F0C5FD4FF0005141EAE0
:104BC000802040F0080802A84346FC4A0EA9009045
:104BD0002846FCF73DFD0746002F01DA3846BDE7C1
:104BE00002A8FCF777FB02AA06A92846FCF7B3FF48
:104BF00004460CB12046B1E7BDF82C00002802DCC9
:104C000004A8C07F10B16FF02600A7E70121284655
:104C1000FDF7C4FE00208DF81600ADF8140004A8BE
:104C2000A86200BF002016901790304600F08AFD61
:104C3000E34941EA80200123169016AA0EA92846CE
:104C4000FEF737FF04461CB10498A862204685E7AA
:104C50000498A862304600F066FD022815D1C11EF6
:104C60002846FDF79BFE0EAA06A92846FDF765FE1D
:104C700004460CB1204671E706AA0EA92846FFF7A4
:104C800017F904460CB1204668E7002066E72DE9D5
:104C9000F747A9B004462046FFF729FA06461EB199
:104CA00030462CB0BDE8F08700232AAA17A9204679
:104CB000FDF794FB8146B9F1000F06DB484600F092
:104CC00041FD40F2FF31884207D1B9F1000F01DA0E
:104CD0004846E6E76FF01500E3E70EAB2BAA0FA9F5
:104CE0002046FDF77BFB0546002D06DB284600F03D
:104CF00029FD40F2FF3188420ED1A81C28B9BDF829
:104D0000380040F2FF31884206D1002D01DA2846F2
:104D1000C7E76FF01500C4E70FA917A8FCF7C5FA9D
:104D200008B9012000E000208046484600F00AFD56
:104D30000746A06A0490A81C98B92B9801F024FD9E
:104D40008246E06E504502D26FF02300A9E7B8F129
:104D5000000F05D0BDF83800B84201DC781C87B2DE
:104D600050E0284600F0DFFC8246484600F0DBFCBD
:104D7000824502D06FF0140093E7B8F1000F05D020
:104D8000BDF83800B84201D100208AE7284600F07B
:104D9000CAFC022836D102A80090BDF838004FF0B6
:104DA000005141EA802040F00803844A0FA92046C0
:104DB000FCF74EFC8246BAF1000F01DA504670E76C
:104DC00002A8FCF787FA02AA06A92046FCF7C3FE50
:104DD00006460EB1304664E7BDF82C00002802DC20
:104DE00004A8C07F10B16FF026005AE701212046C9
:104DF000FDF7D4FD00208DF81600ADF8140004A8CE
:104E0000A06200BFB8F1000F04D117AA39462046AE
:104E1000FDF773FD28211FA801F0A1FCA81C28B1F3
:104E2000BDF83800664941EA802000E000201F906C
:104E3000BDF83800634941EA80202190484600F0DF
:104E400072FC0005BDF8381040EA812A2B9801F069
:104E50009BFC4AEA000ACDF88CA01FA82B9941615F
:104E6000484600F06FFCBDF83810574A42EA8121ED
:104E7000084317A925901FA8C161B8F1000F03D0FE
:104E80004F4840EA872000E00020052327901FAA12
:104E90000FA92046FEF70DFE06461EB10498A0623B
:104EA0003046FEE6B8F1000F21D104F1300000F0E9
:104EB00066FCE0B1002240F2FF312046FDF71DFD07
:104EC000002002900390484600F03CFC3C4941EA37
:104ED00080200123029002AA17A92046FEF7E9FDCF
:104EE00006461EB10498A0623046DAE600BF049878
:104EF000A062A81CD0B1284600F015FC022815D1EC
:104F0000C11E2046FDF74AFD0FAA06A92046FDF75F
:104F100014FD06460EB13046C3E606AA0FA9204688
:104F2000FEF7C6FF06460EB13046BAE60020B8E6E8
:104F30002DE9FF478AB0064617469846DDF858A087
:104F400000230BAA02A93046FDF748FA0446002CBC
:104F500003DA20460EB0BDE8F087204600F0F2FBF1
:104F6000054640F2FF318D420DD1002506F12002A9
:104F700002A93046FCF7EFFD8146B9F1000F01D0E0
:104F80004846E7E700BF5046716F00F0B0FA07F5FA
:104F90004071090541EA852140EA01094B460B4A67
:104FA00002A93046CDF80080FCF752FB0446002CE5
:104FB00010DAA01C60B96FF03C00CBE700FC0F706A
:104FC0000000F04F000010400000101000FCFF7FB8
:104FD0002046BFE7204600F0B9FB82465046B9E7BD
:104FE0002DE9FF478AB0054616461F46DDF858A052
:104FF00000230BAA69462846FDF7F0F98046B8F170
:10500000000F03DA40460EB0BDE8F087404600F0DE
:1050100099FB044640F2FF3084420DD1002405F193
:10502000200269462846FCF796FD8146B9F1000F3B
:1050300001D04846E7E700BF06F54070000540EAAA
:10504000842040EA0A000123CDE9080708AA69463E
:105050002846FEF72EFDD6E72DE9F84304460F4615
:1050600090469946089D606FA84203D26FF01B00DE
:10507000BDE8F8834B464246394620460095FFF787
:10508000AFFF06463046F3E7F8B504460D46164630
:1050900040F2FF3000233246294600902046FFF7B9
:1050A0009FFF07463846F8BD10B50446A06E006B5A
:1050B00010B9E06800F005FBA06E406B10B9E06924
:1050C00000F0FFFAA06E806B10B9606E00F0F9FA84
:1050D000002010BD70B58AB004460D46A5660026B6
:1050E000A06E006B18B1A06E006BE06009E0A16ECD
:1050F000886A00F0DFFAE060E06810B96FF00B0634
:1051000071E0A06E406B18B1A06E416BE16109E0E7
:10511000A16E886A00F0CEFAE061E06910B96FF024
:105120000B0660E021462046FBF7EEFE04F110017D
:105130002046FBF7E9FEA06E806B18B1A06E816B74
:10514000616609E0A16EC86A00F0B4FA6066606E3C
:1051500010B96FF00B0646E0A06EC06BE066E06E23
:1051600008B9FF20E066A06E006C2067206F10B9C0
:105170006FF000402067A06E406C6067606F10B9F0
:1051800040F2FE3060674FF0FF30206201466162FE
:105190000020A062E06207900890F64A099007CAD2
:1051A00007AB07C3C4E91012E06300200490059028
:1051B000F14A0690D2E900109268CDE90502049107
:1051C00008460599C4E90D12206300200190029061
:1051D000EA4A039007CA01AB07C3C4E91312A064EB
:1051E00000200AB070BD2046FFF75EFF3046F8E7AA
:1051F00070B596B004460E46002531462046FFF7AE
:1052000069FF054615B1284616B070BDA26ED16A79
:10521000606E01F0A4FA00206065A26E116AD26A85
:10522000D00000F064F9A0650021E1652046FCF79C
:10523000D9F806A92046FDF712FB054605B13EE068
:105240001822CF49684601F071FAA06EC06901903A
:10525000A06E006A0290E06E0390206F0490606F71
:105260000590684600F0B0FA1822C549183110A818
:1052700001F05CFACDF854D0032310AA06A9204609
:10528000FEF717FC054605B119E0BD49303103C9E9
:10529000CDE90E010EAA06A92046FCF75CFC0546E6
:1052A00005B10CE000208DF82E0000231A4606A957
:1052B0002046FEF7FEFB054605B100E000BF204694
:1052C000FFF7F2FE28469FE770B504462046FFF739
:1052D000EBFE0546284670BD2DE9F04794B0044624
:1052E0008A4651462046FFF7F5FE06461EB1304677
:1052F00014B0BDE8F0872022A14938310CA801F094
:1053000015FA0027A6E0A06E006AB7EB500F02D393
:105310006FF05306D0E07F1C994A583207CA09AB98
:1053200007C3099409A897490022974BCDE9003299
:10533000CDE90210954B12AA0CA92046FCF79FF963
:105340000546002D01DA2E46B6E0002D78D028461D
:1053500000F0DBF9002873D10C9820620D9961628E
:1053600003A88B4B894A0CA900902046FCF770F9E2
:105370000546002D01DA2E469EE003A800F009FA4A
:105380004FF6FF71039801EA104803981FFA80F95D
:10539000B8F1020F02D1B9F1000F0CDD7DA0434638
:1053A00040F698627C49CDE900907CA001F08CFA2F
:1053B0006FF0150680E0069898B10698E16E884275
:1053C0000DD974A1E06ECDE9000140F6A1627249E9
:1053D0007CA0069B01F078FA6FF015066CE0069849
:1053E000E066079898B10798216F88420DD969A1A6
:1053F000206FCDE9000140F6AC6267497DA0079BB4
:1054000001F062FA6FF0150656E0079820670898D9
:10541000A8B10898616F88420FD95EA1606FCDE98D
:10542000000140F6B7625C4900E009E07DA0089BFE
:1054300001F04AFA6FF015063EE00898606700BF79
:1054400004F130020CA92046FCF7FAFE064606B12C
:1054500032E000BF12A800F044F900283FF453AF37
:1054600004F1200000F03DF910B16FF0150623E0C3
:1054700004F13000FBF753FF58B946A2D4E90D01FF
:105480008DE807004FF46D62434972A0236B01F071
:105490001BFA206B00F030F980F00100216B08440A
:1054A0002063D4E90D12206BC4E91012E06320469A
:1054B000FBF79CFF00201BE72046FFF705FF304667
:1054C00016E72DE9F04104460D4616460123324603
:1054D00029462046FCF750FB07463846BDE8F081D8
:1054E00002468A4201D9104670470846FCE7024648
:1054F0008A4201D2104670470846FCE70246B2FBDA
:10550000F1F001FB1020101A704770B504460D46EB
:105510006119481E2946FFF7F1FF70BD0146481E7C
:10552000B0FA80F0C0F12000704710B50446614227
:105530002140481CFFF7F2FF401E10BD10B5044685
:10554000204601F0D1F910BD01B59DF800009DF88D
:10555000011040EA01209DF8021040EA01409DF848
:10556000031040EA016008BD10B504462046FFF76D
:10557000EBFF10BDCC6E0008D86E0008E46E00088A
:10558000F06E0008472300080800F00F00FCFF7FC2
:105590001800102000000000381E000825733A256E
:1055A000643A6572726F723A20496E76616C696412
:1055B0002076657273696F6E207625642E256425CA
:1055C000730A000025733A25643A6572726F723A65
:1055D00020556E737570706F72746564206E616DA6
:1055E000655F6D617820282575203E202575292569
:1055F000730A000025733A25643A6572726F723A35
:1056000020556E737570706F727465642066696C76
:10561000655F6D617820282575203E202575292538
:10562000730A000025733A25643A6572726F723A04
:1056300020556E737570706F727465642061747438
:10564000725F6D617820282575203E2025752925FB
:10565000730A000025733A25643A64656275673AF7
:1056600020466F756E642070656E64696E67206792
:105670007374617465203078253038782530387837
:105680002530387825730A0001B59DF80000000622
:105690009DF8011040EA01409DF8021040EA012007
:1056A0009DF80310084308BD10B504462046FFF7D7
:1056B000EBFF10BD10B5044621460020FBF7D5FBDB
:1056C00010BD10B5044621460020FBF7BEFB10BDFF
:1056D0004FF0FF320A607047016842680260416023
:1056E000704701460868401C10B14868401C08B962
:1056F000012070470020FCE70146012000EBE1702B
:1057000008B1012070470020FCE7014641F3090081
:10571000401C08B9012070470020FCE7014601F059
:10572000E040000D70470146C1F30A507047014642
:10573000C1F30750704710B504462046FFF7F7FF46
:1057400040B210BD0146C1F3892070470146C1F344
:105750000900704770B504462046FFF7D6FF0519CB
:105760002846FFF7F3FF001D70BD10B50446206802
:10577000FFF7ECFF08B1012010BD0020FCE710B5D9
:1057800004462068FFF7CAFF08B1012010BD0020C1
:10579000FCE710B504462068FFF7D6FE206060687D
:1057A000FFF7D2FE6060A068FFF7CEFEA060E06861
:1057B000FFF7CAFEE0602069FFF7C6FE206160695E
:1057C000FFF7C2FE606110BD10B504462068FFF708
:1057D000CBFE20606068FFF7C7FE6060A068FFF73F
:1057E000C3FEA060E068FFF7BFFEE0602069FFF73E
:1057F000BBFE20616069FFF7B7FE606110BD00006D
:1058000070B50B461C46002112E0655C454005F072
:105810000F05094E56F8255085EA1010655C80EAA0
:10582000251505F00F0556F8255085EA1010491C7E
:105830009142EAD370BD00009C6F000831490143DA
:10584000314A1160704770B5002100230F22C478DF
:1058500004B32D4C246804F4E064C4F5E064210A28
:10586000C1F10403CA40447804FA03F18478144077
:1058700021430901254C0678A155047804F01F0541
:105880000124AC4005786D11AD0005F1E025C5F8A7
:10589000004109E0047804F01F050124AC401C4DD0
:1058A0000678761145F8264070BD1A4A0A40024330
:1058B000154B1B1F1A60704739B1134A121D12682D
:1058C0000243114B1B1D1A6006E00F4A121D12689D
:1058D00082430D4B1B1D1A607047042808D14FF0FE
:1058E000E021096941F004014FF0E022116107E075
:1058F0004FF0E021096921F004014FF0E02211612D
:10590000704700000000FA050CED00E000E400E044
:1059100080E100E080FFFF1F10B50446CC488442C0
:1059200008D10121042000F02DFB0021042000F00B
:1059300029FB46E0C748844208D10121082000F035
:1059400021FB0021082000F01DFB3AE0C248844200
:1059500008D10121102000F015FB0021102000F0DB
:1059600011FB2EE0BD48844208D10121202000F027
:1059700009FB0021202000F005FB22E0B84884420A
:1059800008D10121402000F0FDFA0021402000F064
:10599000F9FA16E0B348844208D10121802000F0D2
:1059A000F1FA0021802000F0EDFA0AE0AE488442CE
:1059B00007D10121801500F0E5FA0021A01500F0C3
:1059C000E1FA10BD10B50121084600F0DBFA002114
:1059D000012000F0D7FA10BD2DE9F0410246002564
:1059E0000026002000230024002791F803C00CF0BB
:1059F0000F0591F803C00CF0100CBCF1000F03D0A0
:105A000091F802C04CEA050591F800C0BCF1000F06
:105A100031D0146800202BE04FF0010C0CFA00F399
:105A2000B1F800C00CEA03069E4220D183004FF07B
:105A30000F0C0CFA03F7BC4305FA03FC4CEA040410
:105A400091F803C0BCF1280F06D14FF0010C0CFAFD
:105A500000FCC2F814C00AE091F803C0BCF1480F82
:105A600005D14FF0010C0CFA00FCC2F810C0401C2C
:105A70000828D1D31460B1F800C0BCF1FF0F34DDA9
:105A8000546800202EE000F1080C4FF0010808FADD
:105A90000CF3B1F800C00CEA03069E4221D183004A
:105AA0004FF00F0C0CFA03F7BC4305FA03FC4CEA69
:105AB000040491F803C0BCF1280F05D100F1080CD3
:105AC00008FA0CF8C2F8148091F803C0BCF1480F32
:105AD00007D100F1080C4FF0010808FA0CF8C2F8E1
